{
  "deployments": [
    {
      "transactions": [
        {
          "hash": "0x4ece8839ba1f34117a2b6b16cd59a6ac1c9ddc9aed62bb70c0acfc101b0f87d4",
          "transactionType": "CALL",
          "contractName": null,
          "contractAddress": "0x262e52bed191a441cbd28db151a11d7c41384f72",
          "function": "setTokenConversionInfo(address,uint8,uint256,uint256,uint256,address)",
          "arguments": [
            "0x0000000000000000000000000000000000000000",
            "0",
            "1000000000000000",
            "898000000000000000",
            "10000000000000000",
            "0x6e0f9f2d25CC586965cBcF7017Ff89836ddeF9CC"
          ],
          "transaction": {
            "from": "0x6faff29226219756aa40ce648dbc65fb41de5f72",
            "to": "0x262e52bed191a441cbd28db151a11d7c41384f72",
            "gas": "0x273b6",
            "value": "0x0",
            "input": "0x73effedd0000000000000000000000000000000000000000000000000000000000000000000000000000000000000000000000000000000000000000000000000000000000000000000000000000000000000000000000000000000000038d7ea4c680000000000000000000000000000000000000000000000000000c76563e004d0000000000000000000000000000000000000000000000000000002386f26fc100000000000000000000000000006e0f9f2d25cc586965cbcf7017ff89836ddef9cc",
            "nonce": "0x26",
            "chainId": "0xaa36a7"
          },
          "additionalContracts": [],
          "isFixedGasLimit": false
        },
        {
          "hash": "0x13fe77b8897af8a7f0824b2ee32ebaff872b794a968c6415153309d298464d69",
          "transactionType": "CALL",
          "contractName": null,
          "contractAddress": "0x262e52bed191a441cbd28db151a11d7c41384f72",
          "function": "setTokenConversionInfo(address,uint8,uint256,uint256,uint256,address)",
          "arguments": [
            "0x4B16E254E7848e0826eBDd3049474fD9E70A244c",
            "0",
            "1000000000000000000",
            "664600000000000000",
            "10000000000000000",
            "0x8bFA30329F2A7A7b72fa4A76FdcE8aC92284bb94"
          ],
          "transaction": {
            "from": "0x6faff29226219756aa40ce648dbc65fb41de5f72",
            "to": "0x262e52bed191a441cbd28db151a11d7c41384f72",
            "gas": "0x27522",
            "value": "0x0",
            "input": "0x73effedd0000000000000000000000004b16e254e7848e0826ebdd3049474fd9e70a244c00000000000000000000000000000000000000000000000000000000000000000000000000000000000000000000000000000000000000000de0b6b3a76400000000000000000000000000000000000000000000000000000939222dc5b98000000000000000000000000000000000000000000000000000002386f26fc100000000000000000000000000008bfa30329f2a7a7b72fa4a76fdce8ac92284bb94",
            "nonce": "0x27",
            "chainId": "0xaa36a7"
          },
          "additionalContracts": [],
          "isFixedGasLimit": false
        },
        {
          "hash": "0x754376718d2e69b864ee76548fca2fb6115128af62693388c7c95a88ea88e252",
          "transactionType": "CALL",
          "contractName": null,
          "contractAddress": "0x262e52bed191a441cbd28db151a11d7c41384f72",
          "function": "setTokenConversionInfo(address,uint8,uint256,uint256,uint256,address)",
          "arguments": [
            "0x6e0f9f2d25CC586965cBcF7017Ff89836ddeF9CC",
            "1",
            "1000000000000000",
            "898000000000000000",
            "10000000000000000",
            "0x0000000000000000000000000000000000000000"
          ],
          "transaction": {
            "from": "0x6faff29226219756aa40ce648dbc65fb41de5f72",
            "to": "0x262e52bed191a441cbd28db151a11d7c41384f72",
            "gas": "0x273fd",
            "value": "0x0",
            "input": "0x73effedd0000000000000000000000006e0f9f2d25cc586965cbcf7017ff89836ddef9cc000000000000000000000000000000000000000000000000000000000000000100000000000000000000000000000000000000000000000000038d7ea4c680000000000000000000000000000000000000000000000000000c76563e004d0000000000000000000000000000000000000000000000000000002386f26fc100000000000000000000000000000000000000000000000000000000000000000000",
            "nonce": "0x28",
            "chainId": "0xaa36a7"
          },
          "additionalContracts": [],
          "isFixedGasLimit": false
        },
        {
          "hash": "0xc560e5a98d554699efc56bc1f532c25aae362a1e4c3d7cd574aaabf996c536a3",
          "transactionType": "CALL",
          "contractName": null,
          "contractAddress": "0x262e52bed191a441cbd28db151a11d7c41384f72",
          "function": "setTokenConversionInfo(address,uint8,uint256,uint256,uint256,address)",
          "arguments": [
            "0x8bFA30329F2A7A7b72fa4A76FdcE8aC92284bb94",
            "1",
            "1000000000000000000",
            "664600000000000000",
            "10000000000000000",
            "0x4B16E254E7848e0826eBDd3049474fD9E70A244c"
          ],
          "transaction": {
            "from": "0x6faff29226219756aa40ce648dbc65fb41de5f72",
            "to": "0x262e52bed191a441cbd28db151a11d7c41384f72",
            "gas": "0x2e0c9",
            "value": "0x0",
            "input": "0x73effedd0000000000000000000000008bfa30329f2a7a7b72fa4a76fdce8ac92284bb9400000000000000000000000000000000000000000000000000000000000000010000000000000000000000000000000000000000000000000de0b6b3a76400000000000000000000000000000000000000000000000000000939222dc5b98000000000000000000000000000000000000000000000000000002386f26fc100000000000000000000000000004b16e254e7848e0826ebdd3049474fd9e70a244c",
            "nonce": "0x29",
            "chainId": "0xaa36a7"
          },
          "additionalContracts": [],
          "isFixedGasLimit": false
        }
      ],
      "receipts": [
        {
          "status": "0x1",
          "cumulativeGasUsed": "0x94345b",
          "logs": [],
          "logsBloom": "0x00000000000000000000000000000000000000000000000000000000000000000000000000000000000000000000000000000000000000000000000000000000000000000000000000000000000000000000000000000000000000000000000000000000000000000000000000000000000000000000000000000000000000000000000000000000000000000000000000000000000000000000000000000000000000000000000000000000000000000000000000000000000000000000000000000000000000000000000000000000000000000000000000000000000000000000000000000000000000000000000000000000000000000000000000000000",
          "type": "0x2",
          "transactionHash": "0x4ece8839ba1f34117a2b6b16cd59a6ac1c9ddc9aed62bb70c0acfc101b0f87d4",
          "transactionIndex": "0x69",
          "blockHash": "0xd879a92337bbc4aa18e8737be08f040652edea45acf45bf31927d9fa70beb4c4",
          "blockNumber": "0x7e2438",
          "gasUsed": "0x1c674",
          "effectiveGasPrice": "0xe93707a0d",
          "from": "0x6faff29226219756aa40ce648dbc65fb41de5f72",
          "to": "0x262e52bed191a441cbd28db151a11d7c41384f72",
          "contractAddress": null
        },
        {
          "status": "0x1",
          "cumulativeGasUsed": "0xd658a6",
          "logs": [],
          "logsBloom": "0x00000000000000000000000000000000000000000000000000000000000000000000000000000000000000000000000000000000000000000000000000000000000000000000000000000000000000000000000000000000000000000000000000000000000000000000000000000000000000000000000000000000000000000000000000000000000000000000000000000000000000000000000000000000000000000000000000000000000000000000000000000000000000000000000000000000000000000000000000000000000000000000000000000000000000000000000000000000000000000000000000000000000000000000000000000000",
          "type": "0x2",
          "transactionHash": "0x13fe77b8897af8a7f0824b2ee32ebaff872b794a968c6415153309d298464d69",
          "transactionIndex": "0x8a",
          "blockHash": "0x7c7b3604882a00602479df9b632b43a2745e2e1b3223ae770cf8ccb48033296b",
          "blockNumber": "0x7e2439",
          "gasUsed": "0x1c77c",
          "effectiveGasPrice": "0xe2cdba9b1",
          "from": "0x6faff29226219756aa40ce648dbc65fb41de5f72",
          "to": "0x262e52bed191a441cbd28db151a11d7c41384f72",
          "contractAddress": null
        },
        {
          "status": "0x1",
          "cumulativeGasUsed": "0xe469ad",
          "logs": [],
          "logsBloom": "0x00000000000000000000000000000000000000000000000000000000000000000000000000000000000000000000000000000000000000000000000000000000000000000000000000000000000000000000000000000000000000000000000000000000000000000000000000000000000000000000000000000000000000000000000000000000000000000000000000000000000000000000000000000000000000000000000000000000000000000000000000000000000000000000000000000000000000000000000000000000000000000000000000000000000000000000000000000000000000000000000000000000000000000000000000000000",
          "type": "0x2",
          "transactionHash": "0x754376718d2e69b864ee76548fca2fb6115128af62693388c7c95a88ea88e252",
          "transactionIndex": "0x7c",
          "blockHash": "0xe234eb9ef21c3a96413396f686820d237bf75713587ba48fd17cba2ce079ce32",
          "blockNumber": "0x7e243a",
          "gasUsed": "0x1c6a8",
          "effectiveGasPrice": "0xe7223e83e",
          "from": "0x6faff29226219756aa40ce648dbc65fb41de5f72",
          "to": "0x262e52bed191a441cbd28db151a11d7c41384f72",
          "contractAddress": null
        },
        {
          "status": "0x1",
          "cumulativeGasUsed": "0xe1c37a",
          "logs": [],
          "logsBloom": "0x00000000000000000000000000000000000000000000000000000000000000000000000000000000000000000000000000000000000000000000000000000000000000000000000000000000000000000000000000000000000000000000000000000000000000000000000000000000000000000000000000000000000000000000000000000000000000000000000000000000000000000000000000000000000000000000000000000000000000000000000000000000000000000000000000000000000000000000000000000000000000000000000000000000000000000000000000000000000000000000000000000000000000000000000000000000",
          "type": "0x2",
          "transactionHash": "0xc560e5a98d554699efc56bc1f532c25aae362a1e4c3d7cd574aaabf996c536a3",
          "transactionIndex": "0x7e",
          "blockHash": "0x5ea69ead180101105f811e32f2b5c819802d809b6ad0f10244626b81cc3eff57",
          "blockNumber": "0x7e243b",
          "gasUsed": "0x2156c",
          "effectiveGasPrice": "0xee7afa1d1",
          "from": "0x6faff29226219756aa40ce648dbc65fb41de5f72",
          "to": "0x262e52bed191a441cbd28db151a11d7c41384f72",
          "contractAddress": null
        }
      ],
      "libraries": [],
      "pending": [],
      "returns": {},
      "timestamp": 1746519826,
      "chain": 11155111,
      "commit": "37a0a2e"
    },
    {
      "transactions": [
        {
          "hash": "0x4e4ec30cd8a957129645a217636787615b3cabaf834bfab26dcd96566bcd0820",
          "transactionType": "CALL",
          "contractName": null,
          "contractAddress": "0x262e52bed191a441cbd28db151a11d7c41384f72",
          "function": "setTokenConversionInfo(address,uint8,uint256,uint256,uint256,address)",
          "arguments": [
            "0x0000000000000000000000000000000000000000",
            "0",
            "1000000000000000",
            "898000000000000000",
            "10000000000000000",
            "0x6e0f9f2d25CC586965cBcF7017Ff89836ddeF9CC"
          ],
          "transaction": {
            "from": "0x6faff29226219756aa40ce648dbc65fb41de5f72",
            "to": "0x262e52bed191a441cbd28db151a11d7c41384f72",
            "gas": "0x273b6",
            "value": "0x0",
            "input": "0x73effedd0000000000000000000000000000000000000000000000000000000000000000000000000000000000000000000000000000000000000000000000000000000000000000000000000000000000000000000000000000000000038d7ea4c680000000000000000000000000000000000000000000000000000c76563e004d0000000000000000000000000000000000000000000000000000002386f26fc100000000000000000000000000006e0f9f2d25cc586965cbcf7017ff89836ddef9cc",
            "nonce": "0x8",
            "chainId": "0x14a34"
          },
          "additionalContracts": [],
          "isFixedGasLimit": false
        },
        {
          "hash": "0xc0c4e2f229a15fd56e60b52136b1d5d872d2d42f2a92209b16002b59270a25aa",
          "transactionType": "CALL",
          "contractName": null,
          "contractAddress": "0x262e52bed191a441cbd28db151a11d7c41384f72",
          "function": "setTokenConversionInfo(address,uint8,uint256,uint256,uint256,address)",
          "arguments": [
            "0x4B16E254E7848e0826eBDd3049474fD9E70A244c",
            "0",
            "1000000000000000000",
            "664600000000000000",
            "10000000000000000",
            "0x8bFA30329F2A7A7b72fa4A76FdcE8aC92284bb94"
          ],
          "transaction": {
            "from": "0x6faff29226219756aa40ce648dbc65fb41de5f72",
            "to": "0x262e52bed191a441cbd28db151a11d7c41384f72",
            "gas": "0x27522",
            "value": "0x0",
            "input": "0x73effedd0000000000000000000000004b16e254e7848e0826ebdd3049474fd9e70a244c00000000000000000000000000000000000000000000000000000000000000000000000000000000000000000000000000000000000000000de0b6b3a76400000000000000000000000000000000000000000000000000000939222dc5b98000000000000000000000000000000000000000000000000000002386f26fc100000000000000000000000000008bfa30329f2a7a7b72fa4a76fdce8ac92284bb94",
            "nonce": "0x9",
            "chainId": "0x14a34"
          },
          "additionalContracts": [],
          "isFixedGasLimit": false
        },
        {
          "hash": "0x00fdda1c1f2e50dea34f5a8c0804ed366e8ed7ed289398afdf0354a6c81b1ff9",
          "transactionType": "CALL",
          "contractName": null,
          "contractAddress": "0x262e52bed191a441cbd28db151a11d7c41384f72",
          "function": "setTokenConversionInfo(address,uint8,uint256,uint256,uint256,address)",
          "arguments": [
            "0x6e0f9f2d25CC586965cBcF7017Ff89836ddeF9CC",
            "1",
            "1000000000000000",
            "898000000000000000",
            "10000000000000000",
            "0x0000000000000000000000000000000000000000"
          ],
          "transaction": {
            "from": "0x6faff29226219756aa40ce648dbc65fb41de5f72",
            "to": "0x262e52bed191a441cbd28db151a11d7c41384f72",
            "gas": "0x273fd",
            "value": "0x0",
            "input": "0x73effedd0000000000000000000000006e0f9f2d25cc586965cbcf7017ff89836ddef9cc000000000000000000000000000000000000000000000000000000000000000100000000000000000000000000000000000000000000000000038d7ea4c680000000000000000000000000000000000000000000000000000c76563e004d0000000000000000000000000000000000000000000000000000002386f26fc100000000000000000000000000000000000000000000000000000000000000000000",
            "nonce": "0xa",
            "chainId": "0x14a34"
          },
          "additionalContracts": [],
          "isFixedGasLimit": false
        },
        {
          "hash": "0xa563c04a3a58a398249b18917df46b203d6d7b8ba533616761759fce1445e42d",
          "transactionType": "CALL",
          "contractName": null,
          "contractAddress": "0x262e52bed191a441cbd28db151a11d7c41384f72",
          "function": "setTokenConversionInfo(address,uint8,uint256,uint256,uint256,address)",
          "arguments": [
            "0x8bFA30329F2A7A7b72fa4A76FdcE8aC92284bb94",
            "1",
            "1000000000000000000",
            "664600000000000000",
            "10000000000000000",
            "0x4B16E254E7848e0826eBDd3049474fD9E70A244c"
          ],
          "transaction": {
            "from": "0x6faff29226219756aa40ce648dbc65fb41de5f72",
            "to": "0x262e52bed191a441cbd28db151a11d7c41384f72",
            "gas": "0x2e0c9",
            "value": "0x0",
            "input": "0x73effedd0000000000000000000000008bfa30329f2a7a7b72fa4a76fdce8ac92284bb9400000000000000000000000000000000000000000000000000000000000000010000000000000000000000000000000000000000000000000de0b6b3a76400000000000000000000000000000000000000000000000000000939222dc5b98000000000000000000000000000000000000000000000000000002386f26fc100000000000000000000000000004b16e254e7848e0826ebdd3049474fd9e70a244c",
            "nonce": "0xb",
            "chainId": "0x14a34"
          },
          "additionalContracts": [],
          "isFixedGasLimit": false
        }
      ],
      "receipts": [
        {
          "status": "0x1",
          "cumulativeGasUsed": "0x278fbf",
          "logs": [],
          "logsBloom": "0x00000000000000000000000000000000000000000000000000000000000000000000000000000000000000000000000000000000000000000000000000000000000000000000000000000000000000000000000000000000000000000000000000000000000000000000000000000000000000000000000000000000000000000000000000000000000000000000000000000000000000000000000000000000000000000000000000000000000000000000000000000000000000000000000000000000000000000000000000000000000000000000000000000000000000000000000000000000000000000000000000000000000000000000000000000000",
          "type": "0x2",
          "transactionHash": "0x4e4ec30cd8a957129645a217636787615b3cabaf834bfab26dcd96566bcd0820",
          "transactionIndex": "0x2e",
          "blockHash": "0x4b5a9c56696d139db5a0859b12c98274f7a621fecae61b124eff61e705be7a86",
          "blockNumber": "0x1833434",
          "gasUsed": "0x1c674",
          "effectiveGasPrice": "0xf460d",
          "from": "0x6faff29226219756aa40ce648dbc65fb41de5f72",
          "to": "0x262e52bed191a441cbd28db151a11d7c41384f72",
          "contractAddress": null,
          "l1BaseFeeScalar": "0x44d",
          "l1BlobBaseFee": "0x1",
          "l1BlobBaseFeeScalar": "0xa118b",
          "l1Fee": "0x1d4dbdec48",
          "l1GasPrice": "0xf86656906",
          "l1GasUsed": "0x6b2"
        },
        {
          "status": "0x1",
          "cumulativeGasUsed": "0xe50f18",
          "logs": [],
          "logsBloom": "0x00000000000000000000000000000000000000000000000000000000000000000000000000000000000000000000000000000000000000000000000000000000000000000000000000000000000000000000000000000000000000000000000000000000000000000000000000000000000000000000000000000000000000000000000000000000000000000000000000000000000000000000000000000000000000000000000000000000000000000000000000000000000000000000000000000000000000000000000000000000000000000000000000000000000000000000000000000000000000000000000000000000000000000000000000000000",
          "type": "0x2",
          "transactionHash": "0xc0c4e2f229a15fd56e60b52136b1d5d872d2d42f2a92209b16002b59270a25aa",
          "transactionIndex": "0x97",
          "blockHash": "0xfc7f558df6130cb6d441ad093f72e89fc89b3c83180797634cbb8a0053aa1b94",
          "blockNumber": "0x1833435",
          "gasUsed": "0x1c77c",
          "effectiveGasPrice": "0xf460c",
          "from": "0x6faff29226219756aa40ce648dbc65fb41de5f72",
          "to": "0x262e52bed191a441cbd28db151a11d7c41384f72",
          "contractAddress": null,
          "l1BaseFeeScalar": "0x44d",
          "l1BlobBaseFee": "0x1",
          "l1BlobBaseFeeScalar": "0xa118b",
          "l1Fee": "0x22cb52765a",
          "l1GasPrice": "0xf86656906",
          "l1GasUsed": "0x7f3"
        },
        {
          "status": "0x1",
          "cumulativeGasUsed": "0x1f0652",
          "logs": [],
          "logsBloom": "0x00000000000000000000000000000000000000000000000000000000000000000000000000000000000000000000000000000000000000000000000000000000000000000000000000000000000000000000000000000000000000000000000000000000000000000000000000000000000000000000000000000000000000000000000000000000000000000000000000000000000000000000000000000000000000000000000000000000000000000000000000000000000000000000000000000000000000000000000000000000000000000000000000000000000000000000000000000000000000000000000000000000000000000000000000000000",
          "type": "0x2",
          "transactionHash": "0x00fdda1c1f2e50dea34f5a8c0804ed366e8ed7ed289398afdf0354a6c81b1ff9",
          "transactionIndex": "0x1c",
          "blockHash": "0xa7fac7aec0b4dda1aa4206b44bc5b487020c4aad376adda5a659c07cf3dedad2",
          "blockNumber": "0x1833437",
          "gasUsed": "0x1c6a8",
          "effectiveGasPrice": "0xf460d",
          "from": "0x6faff29226219756aa40ce648dbc65fb41de5f72",
          "to": "0x262e52bed191a441cbd28db151a11d7c41384f72",
          "contractAddress": null,
          "l1BaseFeeScalar": "0x44d",
          "l1BlobBaseFee": "0x1",
          "l1BlobBaseFeeScalar": "0xa118b",
          "l1Fee": "0x20f6cb9da9",
          "l1GasPrice": "0xf86656906",
          "l1GasUsed": "0x788"
        },
        {
          "status": "0x1",
          "cumulativeGasUsed": "0x39a2b3",
          "logs": [],
          "logsBloom": "0x00000000000000000000000000000000000000000000000000000000000000000000000000000000000000000000000000000000000000000000000000000000000000000000000000000000000000000000000000000000000000000000000000000000000000000000000000000000000000000000000000000000000000000000000000000000000000000000000000000000000000000000000000000000000000000000000000000000000000000000000000000000000000000000000000000000000000000000000000000000000000000000000000000000000000000000000000000000000000000000000000000000000000000000000000000000",
          "type": "0x2",
          "transactionHash": "0xa563c04a3a58a398249b18917df46b203d6d7b8ba533616761759fce1445e42d",
          "transactionIndex": "0x25",
          "blockHash": "0x4be08bf4d08146a41e2632a0bed503f2e0c4b1dbecd38fbdd2fa5e64306d6d9d",
          "blockNumber": "0x1833439",
          "gasUsed": "0x2156c",
          "effectiveGasPrice": "0xf460d",
          "from": "0x6faff29226219756aa40ce648dbc65fb41de5f72",
          "to": "0x262e52bed191a441cbd28db151a11d7c41384f72",
          "contractAddress": null,
          "l1BaseFeeScalar": "0x44d",
          "l1BlobBaseFee": "0x1",
          "l1BlobBaseFeeScalar": "0xa118b",
          "l1Fee": "0x26b7e1c160",
          "l1GasPrice": "0xfea5e0189",
          "l1GasUsed": "0x8a1"
        }
      ],
      "libraries": [],
      "pending": [],
      "returns": {},
      "timestamp": 1746519828,
      "chain": 84532,
      "commit": "37a0a2e"
    }
  ],
  "timestamp": 1746519891
}